{
  "contractName": "PRSContract",
  "abi": [
    {
      "anonymous": false,
      "inputs": [
        {
          "indexed": false,
          "name": "feedbackId",
          "type": "bytes32"
        },
        {
          "indexed": false,
          "name": "email",
          "type": "bytes32"
        },
        {
          "indexed": false,
          "name": "sessionId",
          "type": "bytes32"
        },
        {
          "indexed": false,
          "name": "answerHash",
          "type": "bytes32"
        },
        {
          "indexed": false,
          "name": "timestamp",
          "type": "uint256"
        }
      ],
      "name": "EventSendFeedback",
      "type": "event"
    },
    {
      "constant": false,
      "inputs": [
        {
          "name": "feedbackId",
          "type": "bytes32"
        },
        {
          "name": "email",
          "type": "bytes32"
        },
        {
          "name": "sessionId",
          "type": "bytes32"
        },
        {
          "name": "answerHash",
          "type": "bytes32"
        },
        {
          "name": "feedbackTimestamp",
          "type": "uint256"
        }
      ],
      "name": "sendFeedback",
      "outputs": [],
      "payable": false,
      "stateMutability": "nonpayable",
      "type": "function"
    },
    {
      "constant": true,
      "inputs": [
        {
          "name": "feedbackId",
          "type": "bytes32"
        }
      ],
      "name": "getFeedbackInfo",
      "outputs": [
        {
          "components": [
            {
              "name": "feedbackId",
              "type": "bytes32"
            },
            {
              "name": "email",
              "type": "bytes32"
            },
            {
              "name": "sessionId",
              "type": "bytes32"
            },
            {
              "name": "answerHash",
              "type": "bytes32"
            },
            {
              "name": "timestamp",
              "type": "uint256"
            }
          ],
          "name": "",
          "type": "tuple"
        }
      ],
      "payable": false,
      "stateMutability": "view",
      "type": "function"
    },
    {
      "constant": true,
      "inputs": [
        {
          "name": "email",
          "type": "bytes32"
        }
      ],
      "name": "getUserFeedbacks",
      "outputs": [
        {
          "components": [
            {
              "name": "listFeedbackId",
              "type": "bytes32[]"
            }
          ],
          "name": "",
          "type": "tuple"
        }
      ],
      "payable": false,
      "stateMutability": "view",
      "type": "function"
    }
  ],
  "bytecode": "0x608060405234801561001057600080fd5b50610685806100206000396000f300608060405260043610610057576000357c0100000000000000000000000000000000000000000000000000000000900463ffffffff1680630eb0a7b11461005c57806315e6028014610085578063e78f941b146100c2575b600080fd5b34801561006857600080fd5b50610083600480360361007e91908101906103ec565b6100ff565b005b34801561009157600080fd5b506100ac60048036036100a791908101906103c3565b610232565b6040516100b991906105c1565b60405180910390f35b3480156100ce57600080fd5b506100e960048036036100e491908101906103c3565b6102b9565b6040516100f691906105dc565b60405180910390f35b60a0604051908101604052808660001916815260200185600019168152602001846000191681526020018360001916815260200182815250600080876000191660001916815260200190815260200160002060008201518160000190600019169055602082015181600101906000191690556040820151816002019060001916905560608201518160030190600019169055608082015181600401559050506001600085600019166000191681526020019081526020016000206000018590806001815401808255809150509060018203906000526020600020016000909192909190915090600019169055507f90324507652e991e9c1ab7f51019624267da933954b41a1ada987b24d4a4bb7b858585858560405161022395949392919061056e565b60405180910390a15050505050565b61023a61034b565b600080836000191660001916815260200190815260200160002060a060405190810160405290816000820154600019166000191681526020016001820154600019166000191681526020016002820154600019166000191681526020016003820154600019166000191681526020016004820154815250509050919050565b6102c1610387565b600160008360001916600019168152602001908152602001600020602060405190810160405290816000820180548060200260200160405190810160405280929190818152602001828054801561033b57602002820191906000526020600020905b81546000191681526020019060010190808311610323575b5050505050815250509050919050565b60a06040519081016040528060008019168152602001600080191681526020016000801916815260200160008019168152602001600081525090565b602060405190810160405280606081525090565b60006103a78235610637565b905092915050565b60006103bb8235610641565b905092915050565b6000602082840312156103d557600080fd5b60006103e38482850161039b565b91505092915050565b600080600080600060a0868803121561040457600080fd5b60006104128882890161039b565b95505060206104238882890161039b565b94505060406104348882890161039b565b93505060606104458882890161039b565b9250506080610456888289016103af565b9150509295509295909350565b600061046e8261060b565b808452602084019350610480836105fe565b60005b828110156104b2576104968683516104be565b61049f82610616565b9150602086019550600181019050610483565b50849250505092915050565b6104c781610623565b82525050565b60a0820160008201516104e360008501826104be565b5060208201516104f660208501826104be565b50604082015161050960408501826104be565b50606082015161051c60608501826104be565b50608082015161052f608085018261055f565b50505050565b600060208301600083015184820360008601526105528282610463565b9150508091505092915050565b6105688161062d565b82525050565b600060a08201905061058360008301886104be565b61059060208301876104be565b61059d60408301866104be565b6105aa60608301856104be565b6105b7608083018461055f565b9695505050505050565b600060a0820190506105d660008301846104cd565b92915050565b600060208201905081810360008301526105f68184610535565b905092915050565b6000602082019050919050565b600081519050919050565b6000602082019050919050565b6000819050919050565b6000819050919050565b6000819050919050565b60008190509190505600a265627a7a7230582069e255ed648e5f3db4dd1e80e928a5989145f48a6b57fbd8804e21bb9daed5586c6578706572696d656e74616cf50037",
  "source": "pragma solidity ^0.4.0;\npragma experimental ABIEncoderV2;\n\ncontract PRSContract {\n    // =================================\n    // Structs Definition\n    // =================================\n    struct FeedbackInfo {\n        bytes32 feedbackId;\n        bytes32 email;\n        bytes32 sessionId;\n        bytes32 answerHash;\n        uint256 timestamp;\n    }\n\n    struct UserInfo {\n        bytes32[] listFeedbackId;\n    }\n\n    // =================================\n    // Storage\n    // =================================\n    mapping(bytes32 => FeedbackInfo) feedbacks;\n    mapping(bytes32 => UserInfo) userInfo;\n\n    // =================================\n    // Events\n    // =================================\n    event EventSendFeedback(\n        bytes32 feedbackId,\n        bytes32 email,\n        bytes32 sessionId,\n        bytes32 answerHash,\n        uint256 timestamp\n    );\n\n    // =================================\n    // Transactions - Write\n    // =================================\n    function sendFeedback(\n        bytes32 feedbackId,\n        bytes32 email,\n        bytes32 sessionId,\n        bytes32 answerHash,\n        uint256 feedbackTimestamp\n    ) public {\n        feedbacks[feedbackId] = FeedbackInfo(\n            feedbackId,\n            email,\n            sessionId,\n            answerHash,\n            feedbackTimestamp\n        );\n        userInfo[email].listFeedbackId.push(feedbackId);\n\n        emit EventSendFeedback(\n            feedbackId,\n            email,\n            sessionId,\n            answerHash,\n            feedbackTimestamp\n        );\n    }\n\n    // =================================\n    // Read smart contract\n    // =================================\n    function getFeedbackInfo(bytes32 feedbackId)\n        public\n        view\n        returns (FeedbackInfo)\n    {\n        return feedbacks[feedbackId];\n    }\n\n    function getUserFeedbacks(bytes32 email) public view returns (UserInfo) {\n        return userInfo[email];\n    }\n}\n",
  "sourcePath": "/Users/huynhha/Documents/LVTN/server/contracts/PRSContract.sol",
  "compiler": {
    "name": "solc",
    "version": "0.4.24+commit.e67f0147.Emscripten.clang"
  },
  "schemaVersion": "2.0.1",
  "updatedAt": "2020-06-28T02:02:38.011Z"
}